{
  "transactions": [
    {
      "hash": "0x8eea64fc0bc625f6c7aa93a02ae912ad8ea468ed0a5fce9e00c92fcc9cc5937f",
      "transactionType": "CALL",
      "contractName": null,
      "contractAddress": "0x779877a7b0d9e8603169ddbd7836e478b4624789",
      "function": "transferAndCall(address,uint256,bytes)",
      "arguments": [
        "0x9DdfaCa8183c41ad55329BdeeD9F6A8d53168B1B",
        "3000000000000000000",
        "0xc7892bb2e948fe0a4cf9245be61da5f374da217d2c813f43301e8caff6f86045"
      ],
      "transaction": {
        "from": "0x75dd85131cb9af388e024d203ba2ffdf3b890673",
        "to": "0x779877a7b0d9e8603169ddbd7836e478b4624789",
        "gas": "0x1c1ff",
        "value": "0x0",
        "input": "0x4000aea00000000000000000000000009ddfaca8183c41ad55329bdeed9f6a8d53168b1b00000000000000000000000000000000000000000000000029a2241af62c000000000000000000000000000000000000000000000000000000000000000000600000000000000000000000000000000000000000000000000000000000000020c7892bb2e948fe0a4cf9245be61da5f374da217d2c813f43301e8caff6f86045",
        "nonce": "0x1b",
        "chainId": "0xaa36a7"
      },
      "additionalContracts": [],
      "isFixedGasLimit": false
    }
  ],
  "receipts": [
    {
      "status": "0x1",
      "cumulativeGasUsed": "0x17f91ec",
      "logs": [
        {
          "address": "0x779877a7b0d9e8603169ddbd7836e478b4624789",
          "topics": [
            "0xddf252ad1be2c89b69c2b068fc378daa952ba7f163c4a11628f55a4df523b3ef",
            "0x00000000000000000000000075dd85131cb9af388e024d203ba2ffdf3b890673",
            "0x0000000000000000000000009ddfaca8183c41ad55329bdeed9f6a8d53168b1b"
          ],
          "data": "0x00000000000000000000000000000000000000000000000029a2241af62c0000",
          "blockHash": "0x95e72aeec027605205794881d07c6bbd6b115758d2f55bc8697acf3987eb6f29",
          "blockNumber": "0x970efb",
          "blockTimestamp": "0x694ab0a4",
          "transactionHash": "0x8eea64fc0bc625f6c7aa93a02ae912ad8ea468ed0a5fce9e00c92fcc9cc5937f",
          "transactionIndex": "0x71",
          "logIndex": "0x34a",
          "removed": false
        },
        {
          "address": "0x779877a7b0d9e8603169ddbd7836e478b4624789",
          "topics": [
            "0xe19260aff97b920c7df27010903aeb9c8d2be5d310a2c67824cf3f15396e4c16",
            "0x00000000000000000000000075dd85131cb9af388e024d203ba2ffdf3b890673",
            "0x0000000000000000000000009ddfaca8183c41ad55329bdeed9f6a8d53168b1b"
          ],
          "data": "0x00000000000000000000000000000000000000000000000029a2241af62c000000000000000000000000000000000000000000000000000000000000000000400000000000000000000000000000000000000000000000000000000000000020c7892bb2e948fe0a4cf9245be61da5f374da217d2c813f43301e8caff6f86045",
          "blockHash": "0x95e72aeec027605205794881d07c6bbd6b115758d2f55bc8697acf3987eb6f29",
          "blockNumber": "0x970efb",
          "blockTimestamp": "0x694ab0a4",
          "transactionHash": "0x8eea64fc0bc625f6c7aa93a02ae912ad8ea468ed0a5fce9e00c92fcc9cc5937f",
          "transactionIndex": "0x71",
          "logIndex": "0x34b",
          "removed": false
        },
        {
          "address": "0x9ddfaca8183c41ad55329bdeed9f6a8d53168b1b",
          "topics": [
            "0x1ced9348ff549fceab2ac57cd3a9de38edaaab274b725ee82c23e8fc8c4eec7a",
            "0xc7892bb2e948fe0a4cf9245be61da5f374da217d2c813f43301e8caff6f86045"
          ],
          "data": "0x000000000000000000000000000000000000000000000000000000000000000000000000000000000000000000000000000000000000000029a2241af62c0000",
          "blockHash": "0x95e72aeec027605205794881d07c6bbd6b115758d2f55bc8697acf3987eb6f29",
          "blockNumber": "0x970efb",
          "blockTimestamp": "0x694ab0a4",
          "transactionHash": "0x8eea64fc0bc625f6c7aa93a02ae912ad8ea468ed0a5fce9e00c92fcc9cc5937f",
          "transactionIndex": "0x71",
          "logIndex": "0x34c",
          "removed": false
        }
      ],
      "logsBloom": "0x00000004000000000000000000000000000000000020000000000000020000000000000000000000008000000000000000000000000000000000000000400000000000000000000000000008000000000000000000000000000020000020000008000000000000000000000000000000000000000000000000000010000040000000000000000000000000010000800000000020000000000000000000000000000000000000000000000000010000000000000000000000000004000000000000000002000000000000000000000000000000000000000100000002000000000010000000000000800020000002000000000000000000000000000000002000",
      "type": "0x2",
      "transactionHash": "0x8eea64fc0bc625f6c7aa93a02ae912ad8ea468ed0a5fce9e00c92fcc9cc5937f",
      "transactionIndex": "0x71",
      "blockHash": "0x95e72aeec027605205794881d07c6bbd6b115758d2f55bc8697acf3987eb6f29",
      "blockNumber": "0x970efb",
      "gasUsed": "0x133b1",
      "effectiveGasPrice": "0xf75f5265",
      "from": "0x75dd85131cb9af388e024d203ba2ffdf3b890673",
      "to": "0x779877a7b0d9e8603169ddbd7836e478b4624789",
      "contractAddress": null
    }
  ],
  "libraries": [],
  "pending": [],
  "returns": {},
  "timestamp": 1766502565995,
  "chain": 11155111,
  "commit": "6c00bd1"
}